:100000000C9434000C9446000C9446000C9446006A
:100010000C9446000C9446000C9446000C94460048
:100020000C9446000C9446000C9446000C94460038
:100030000C9446000C9446000C9446000C94460028
:100040000C9446000C9446000C9446000C94460018
:100050000C9446000C9446000C9446000C94460008
:100060000C945A000C94460011241FBECFEFD8E028
:10007000DEBFCDBF22E0A0E0B1E001C01D92AF3FE6
:10008000B207E1F70E94E8000C94EB000C9400002A
:1000900098E49093B800E9EBF0E090819C7F908326
:1000A000880F8093BA00ECEBF0E08081856C808350
:1000B000789408951F920F920FB60F9211248F9388
:1000C0009F93EF93FF938091B900887F803661F40E
:1000D00085B1809585B98FEF80930001ECEBF0E05E
:1000E0008081856C808363C08091B900887F80386F
:1000F00061F59091BB00809100018F3F41F4909396
:100100000001ECEBF0E08081856C808350C0E091D1
:100110000001F0E0E050FE4F9083809100018F5F7E
:1001200080930001809100018F3F31F0ECEBF0E013
:100130008081856C80833BC0ECEBF0E080818F7B1D
:10014000808380818568808332C08091B900887FF8
:10015000883B41F59091BB00809100018F3F11F4E5
:1001600090930001E0910001F0E0EF5FFE4F80818D
:100170008093BB00809100018F5F8093000180918C
:1001800000018F3F31F0ECEBF0E08081856C8083E3
:100190000EC0ECEBF0E080818F7B808380818568EE
:1001A000808305C0ECEBF0E0808185648083FF9163
:1001B000EF919F918F910F900FBE0F901F90189508
:1001C0008FEF84B980E285B983E10E9448000895E9
:0A01D0000E94E000FFCFF894FFCF7B
:00000001FF
