S00B00004932432E737265635B
S11300000C9434000C9446000C9446000C94460066
S11300100C9446000C9446000C9446000C94460044
S11300200C9446000C9446000C9446000C94460034
S11300300C9446000C9446000C9446000C94460024
S11300400C9446000C9446000C9446000C94460014
S11300500C9446000C9446000C9446000C94460004
S11300600C9446000C94460011241FBECFEFD8E038
S1130070DEBFCDBF23E0A0E0B1E001C01D92A030FF
S1130080B207E1F70E947C000C9485000C940000F8
S113009098E49093B800E9EBF0E090819C7F908322
S11300A0880F8F5F8093BA00ECEBF0E08081856C61
S11300B0808308958FEF84B980E285B981E08093CD
S11300C0000183E10E944800789408952D982FEF51
S11300D080E792E0215080409040E1F700C00000AA
S11300E080E285B92FEF82E597E02150804090406F
S11300F0E1F700C0000008950E945A0080910001B9
S11101008823F1F30E946600F9CFF894FFCF34
S9030000FC
